{
  "contractName": "Restrictable",
  "abi": [
    {
      "constant": false,
      "inputs": [],
      "name": "renounceOwnership",
      "outputs": [],
      "payable": false,
      "stateMutability": "nonpayable",
      "type": "function"
    },
    {
      "constant": true,
      "inputs": [],
      "name": "owner",
      "outputs": [
        {
          "name": "",
          "type": "address"
        }
      ],
      "payable": false,
      "stateMutability": "view",
      "type": "function"
    },
    {
      "constant": true,
      "inputs": [],
      "name": "isOwner",
      "outputs": [
        {
          "name": "",
          "type": "bool"
        }
      ],
      "payable": false,
      "stateMutability": "view",
      "type": "function"
    },
    {
      "constant": false,
      "inputs": [
        {
          "name": "newOwner",
          "type": "address"
        }
      ],
      "name": "transferOwnership",
      "outputs": [],
      "payable": false,
      "stateMutability": "nonpayable",
      "type": "function"
    },
    {
      "anonymous": false,
      "inputs": [
        {
          "indexed": true,
          "name": "owner",
          "type": "address"
        }
      ],
      "name": "RestrictionsDisabled",
      "type": "event"
    },
    {
      "anonymous": false,
      "inputs": [
        {
          "indexed": true,
          "name": "previousOwner",
          "type": "address"
        },
        {
          "indexed": true,
          "name": "newOwner",
          "type": "address"
        }
      ],
      "name": "OwnershipTransferred",
      "type": "event"
    },
    {
      "constant": true,
      "inputs": [],
      "name": "isRestrictionEnabled",
      "outputs": [
        {
          "name": "",
          "type": "bool"
        }
      ],
      "payable": false,
      "stateMutability": "view",
      "type": "function"
    },
    {
      "constant": false,
      "inputs": [],
      "name": "disableRestrictions",
      "outputs": [],
      "payable": false,
      "stateMutability": "nonpayable",
      "type": "function"
    }
  ],
  "bytecode": "0x60806040526001600060146101000a81548160ff021916908315150217905550336000806101000a81548173ffffffffffffffffffffffffffffffffffffffff021916908373ffffffffffffffffffffffffffffffffffffffff1602179055506000809054906101000a900473ffffffffffffffffffffffffffffffffffffffff1673ffffffffffffffffffffffffffffffffffffffff16600073ffffffffffffffffffffffffffffffffffffffff167f8be0079c531659141344cd1fd0a4f28419497f9722a3daafe3b4186f6b6457e060405160405180910390a361057a806100ea6000396000f3fe608060405260043610610078576000357c0100000000000000000000000000000000000000000000000000000000900463ffffffff1680632a6424071461007d578063715018a6146100ac5780638da5cb5b146100c35780638f32d59b1461011a578063dce306ad14610149578063f2fde38b14610160575b600080fd5b34801561008957600080fd5b506100926101b1565b604051808215151515815260200191505060405180910390f35b3480156100b857600080fd5b506100c16101c7565b005b3480156100cf57600080fd5b506100d8610299565b604051808273ffffffffffffffffffffffffffffffffffffffff1673ffffffffffffffffffffffffffffffffffffffff16815260200191505060405180910390f35b34801561012657600080fd5b5061012f6102c2565b604051808215151515815260200191505060405180910390f35b34801561015557600080fd5b5061015e610319565b005b34801561016c57600080fd5b506101af6004803603602081101561018357600080fd5b81019080803573ffffffffffffffffffffffffffffffffffffffff169060200190929190505050610435565b005b60008060149054906101000a900460ff16905090565b6101cf6102c2565b15156101da57600080fd5b600073ffffffffffffffffffffffffffffffffffffffff166000809054906101000a900473ffffffffffffffffffffffffffffffffffffffff1673ffffffffffffffffffffffffffffffffffffffff167f8be0079c531659141344cd1fd0a4f28419497f9722a3daafe3b4186f6b6457e060405160405180910390a360008060006101000a81548173ffffffffffffffffffffffffffffffffffffffff021916908373ffffffffffffffffffffffffffffffffffffffff160217905550565b60008060009054906101000a900473ffffffffffffffffffffffffffffffffffffffff16905090565b60008060009054906101000a900473ffffffffffffffffffffffffffffffffffffffff1673ffffffffffffffffffffffffffffffffffffffff163373ffffffffffffffffffffffffffffffffffffffff1614905090565b6103216102c2565b151561032c57600080fd5b600060149054906101000a900460ff1615156103d6576040517f08c379a00000000000000000000000000000000000000000000000000000000081526004018080602001828103825260228152602001807f5265737472696374696f6e732061726520616c72656164792064697361626c6581526020017f642e00000000000000000000000000000000000000000000000000000000000081525060400191505060405180910390fd5b60008060146101000a81548160ff0219169083151502179055503373ffffffffffffffffffffffffffffffffffffffff167f3c13a557aa89734e312c348465096b4ddc97709822675c45090f4e2a8d6c4f2b60405160405180910390a2565b61043d6102c2565b151561044857600080fd5b61045181610454565b50565b600073ffffffffffffffffffffffffffffffffffffffff168173ffffffffffffffffffffffffffffffffffffffff161415151561049057600080fd5b8073ffffffffffffffffffffffffffffffffffffffff166000809054906101000a900473ffffffffffffffffffffffffffffffffffffffff1673ffffffffffffffffffffffffffffffffffffffff167f8be0079c531659141344cd1fd0a4f28419497f9722a3daafe3b4186f6b6457e060405160405180910390a3806000806101000a81548173ffffffffffffffffffffffffffffffffffffffff021916908373ffffffffffffffffffffffffffffffffffffffff1602179055505056fea165627a7a7230582034ccdfc52382df4872c45152529eae133d192e7c4049c4d8ee8c36b9ced9e5a50029",
  "source": "pragma solidity 0.5.0;\n\nimport \"openzeppelin-solidity/contracts/ownership/Ownable.sol\";\n\n/**\nRestrictions start off as enabled.\nOnce they are disabled, they cannot be re-enabled.\nOnly the owner may disable restrictions.\n */\ncontract Restrictable is Ownable {\n    // State variable to track whether restrictions are enabled.  Defaults to true.\n    bool private _restrictionsEnabled = true;\n\n    // Event emitted when flag is disabled\n    event RestrictionsDisabled(address indexed owner);\n\n    /**\n    View function to determine if restrictions are enabled\n     */\n    function isRestrictionEnabled() public view returns (bool) {\n        return _restrictionsEnabled;\n    }\n\n    /**\n    Function to update the enabled flag on restrictions to disabled.  Only the owner should be able to call.\n    This is a permanent change that cannot be undone\n     */\n    function disableRestrictions() public onlyOwner {\n        require(_restrictionsEnabled, \"Restrictions are already disabled.\");\n        \n        // Set the flag\n        _restrictionsEnabled = false;\n\n        // Trigger the event\n        emit RestrictionsDisabled(msg.sender);\n    }\n}\n",
  "sourcePath": "/Users/james/Source/tokensoft/suku_token/contracts/Restrictable.sol",
  "compiler": {
    "name": "solc",
    "version": "0.5.0+commit.1d4f565a.Emscripten.clang"
  },
  "schemaVersion": "3.0.2",
  "updatedAt": "2019-04-05T22:34:39.195Z",
  "devdoc": {
    "methods": {
      "isOwner()": {
        "return": "true if `msg.sender` is the owner of the contract."
      },
      "owner()": {
        "return": "the address of the owner."
      },
      "renounceOwnership()": {
        "details": "Allows the current owner to relinquish control of the contract."
      },
      "transferOwnership(address)": {
        "details": "Allows the current owner to transfer control of the contract to a newOwner.",
        "params": {
          "newOwner": "The address to transfer ownership to."
        }
      }
    }
  },
  "userdoc": {
    "methods": {
      "disableRestrictions()": {
        "notice": "Function to update the enabled flag on restrictions to disabled.  Only the owner should be able to call. This is a permanent change that cannot be undone"
      },
      "isRestrictionEnabled()": {
        "notice": "View function to determine if restrictions are enabled"
      },
      "renounceOwnership()": {
        "notice": "Renouncing to ownership will leave the contract without an owner. It will not be possible to call the functions with the `onlyOwner` modifier anymore."
      }
    },
    "notice": "Restrictions start off as enabled. Once they are disabled, they cannot be re-enabled. Only the owner may disable restrictions."
  }
}