{
  "contractName": "Whitelistable",
  "abi": [
    {
      "constant": true,
      "inputs": [
        {
          "name": "addressToTest",
          "type": "address"
        }
      ],
      "name": "isAdministrator",
      "outputs": [
        {
          "name": "",
          "type": "bool"
        }
      ],
      "payable": false,
      "stateMutability": "view",
      "type": "function"
    },
    {
      "constant": false,
      "inputs": [
        {
          "name": "adminToRemove",
          "type": "address"
        }
      ],
      "name": "removeAdmin",
      "outputs": [],
      "payable": false,
      "stateMutability": "nonpayable",
      "type": "function"
    },
    {
      "constant": false,
      "inputs": [
        {
          "name": "adminToAdd",
          "type": "address"
        }
      ],
      "name": "addAdmin",
      "outputs": [],
      "payable": false,
      "stateMutability": "nonpayable",
      "type": "function"
    },
    {
      "constant": false,
      "inputs": [],
      "name": "renounceOwnership",
      "outputs": [],
      "payable": false,
      "stateMutability": "nonpayable",
      "type": "function"
    },
    {
      "constant": true,
      "inputs": [
        {
          "name": "",
          "type": "address"
        }
      ],
      "name": "administrators",
      "outputs": [
        {
          "name": "",
          "type": "bool"
        }
      ],
      "payable": false,
      "stateMutability": "view",
      "type": "function"
    },
    {
      "constant": true,
      "inputs": [],
      "name": "owner",
      "outputs": [
        {
          "name": "",
          "type": "address"
        }
      ],
      "payable": false,
      "stateMutability": "view",
      "type": "function"
    },
    {
      "constant": true,
      "inputs": [],
      "name": "isOwner",
      "outputs": [
        {
          "name": "",
          "type": "bool"
        }
      ],
      "payable": false,
      "stateMutability": "view",
      "type": "function"
    },
    {
      "constant": true,
      "inputs": [
        {
          "name": "",
          "type": "address"
        }
      ],
      "name": "addressWhitelists",
      "outputs": [
        {
          "name": "",
          "type": "uint8"
        }
      ],
      "payable": false,
      "stateMutability": "view",
      "type": "function"
    },
    {
      "constant": true,
      "inputs": [
        {
          "name": "",
          "type": "uint8"
        },
        {
          "name": "",
          "type": "uint8"
        }
      ],
      "name": "outboundWhitelistsEnabled",
      "outputs": [
        {
          "name": "",
          "type": "bool"
        }
      ],
      "payable": false,
      "stateMutability": "view",
      "type": "function"
    },
    {
      "constant": false,
      "inputs": [
        {
          "name": "newOwner",
          "type": "address"
        }
      ],
      "name": "transferOwnership",
      "outputs": [],
      "payable": false,
      "stateMutability": "nonpayable",
      "type": "function"
    },
    {
      "anonymous": false,
      "inputs": [
        {
          "indexed": true,
          "name": "addedAddress",
          "type": "address"
        },
        {
          "indexed": true,
          "name": "whitelist",
          "type": "uint8"
        },
        {
          "indexed": true,
          "name": "addedBy",
          "type": "address"
        }
      ],
      "name": "AddressAddedToWhitelist",
      "type": "event"
    },
    {
      "anonymous": false,
      "inputs": [
        {
          "indexed": true,
          "name": "removedAddress",
          "type": "address"
        },
        {
          "indexed": true,
          "name": "whitelist",
          "type": "uint8"
        },
        {
          "indexed": true,
          "name": "removedBy",
          "type": "address"
        }
      ],
      "name": "AddressRemovedFromWhitelist",
      "type": "event"
    },
    {
      "anonymous": false,
      "inputs": [
        {
          "indexed": true,
          "name": "sourceWhitelist",
          "type": "uint8"
        },
        {
          "indexed": true,
          "name": "destinationWhitelist",
          "type": "uint8"
        },
        {
          "indexed": false,
          "name": "from",
          "type": "bool"
        },
        {
          "indexed": false,
          "name": "to",
          "type": "bool"
        }
      ],
      "name": "OutboundWhitelistUpdated",
      "type": "event"
    },
    {
      "anonymous": false,
      "inputs": [
        {
          "indexed": true,
          "name": "addedAdmin",
          "type": "address"
        },
        {
          "indexed": true,
          "name": "addedBy",
          "type": "address"
        }
      ],
      "name": "AdminAdded",
      "type": "event"
    },
    {
      "anonymous": false,
      "inputs": [
        {
          "indexed": true,
          "name": "removedAdmin",
          "type": "address"
        },
        {
          "indexed": true,
          "name": "removedBy",
          "type": "address"
        }
      ],
      "name": "AdminRemoved",
      "type": "event"
    },
    {
      "anonymous": false,
      "inputs": [
        {
          "indexed": true,
          "name": "previousOwner",
          "type": "address"
        },
        {
          "indexed": true,
          "name": "newOwner",
          "type": "address"
        }
      ],
      "name": "OwnershipTransferred",
      "type": "event"
    },
    {
      "constant": false,
      "inputs": [
        {
          "name": "addressToAdd",
          "type": "address"
        },
        {
          "name": "whitelist",
          "type": "uint8"
        }
      ],
      "name": "addToWhitelist",
      "outputs": [],
      "payable": false,
      "stateMutability": "nonpayable",
      "type": "function"
    },
    {
      "constant": false,
      "inputs": [
        {
          "name": "addressToRemove",
          "type": "address"
        }
      ],
      "name": "removeFromWhitelist",
      "outputs": [],
      "payable": false,
      "stateMutability": "nonpayable",
      "type": "function"
    },
    {
      "constant": false,
      "inputs": [
        {
          "name": "sourceWhitelist",
          "type": "uint8"
        },
        {
          "name": "destinationWhitelist",
          "type": "uint8"
        },
        {
          "name": "newEnabledValue",
          "type": "bool"
        }
      ],
      "name": "updateOutboundWhitelistEnabled",
      "outputs": [],
      "payable": false,
      "stateMutability": "nonpayable",
      "type": "function"
    },
    {
      "constant": true,
      "inputs": [
        {
          "name": "sender",
          "type": "address"
        },
        {
          "name": "receiver",
          "type": "address"
        }
      ],
      "name": "checkWhitelistAllowed",
      "outputs": [
        {
          "name": "",
          "type": "bool"
        }
      ],
      "payable": false,
      "stateMutability": "view",
      "type": "function"
    }
  ],
  "bytecode": "0x6080604052336000806101000a81548173ffffffffffffffffffffffffffffffffffffffff021916908373ffffffffffffffffffffffffffffffffffffffff1602179055506000809054906101000a900473ffffffffffffffffffffffffffffffffffffffff1673ffffffffffffffffffffffffffffffffffffffff16600073ffffffffffffffffffffffffffffffffffffffff167f8be0079c531659141344cd1fd0a4f28419497f9722a3daafe3b4186f6b6457e060405160405180910390a36110e5806100cf6000396000f3fe6080604052600436106100d0576000357c0100000000000000000000000000000000000000000000000000000000900463ffffffff1680630263b858146100d55780630a2eb301146101335780631785f53c1461019c5780633973b596146101ed5780637048027514610244578063715018a61461029557806376be1585146102ac5780638ab1d681146103155780638da5cb5b146103665780638f32d59b146103bd57806392e6d68b146103ec5780639437e2fe14610457578063e9594508146104e0578063f2fde38b14610543575b600080fd5b3480156100e157600080fd5b50610131600480360360408110156100f857600080fd5b81019080803573ffffffffffffffffffffffffffffffffffffffff169060200190929190803560ff169060200190929190505050610594565b005b34801561013f57600080fd5b506101826004803603602081101561015657600080fd5b81019080803573ffffffffffffffffffffffffffffffffffffffff1690602001909291905050506107b2565b604051808215151515815260200191505060405180910390f35b3480156101a857600080fd5b506101eb600480360360208110156101bf57600080fd5b81019080803573ffffffffffffffffffffffffffffffffffffffff169060200190929190505050610808565b005b3480156101f957600080fd5b506102426004803603606081101561021057600080fd5b81019080803560ff169060200190929190803560ff1690602001909291908035151590602001909291905050506108d0565b005b34801561025057600080fd5b506102936004803603602081101561026757600080fd5b81019080803573ffffffffffffffffffffffffffffffffffffffff169060200190929190505050610a52565b005b3480156102a157600080fd5b506102aa610b19565b005b3480156102b857600080fd5b506102fb600480360360208110156102cf57600080fd5b81019080803573ffffffffffffffffffffffffffffffffffffffff169060200190929190505050610beb565b604051808215151515815260200191505060405180910390f35b34801561032157600080fd5b506103646004803603602081101561033857600080fd5b81019080803573ffffffffffffffffffffffffffffffffffffffff169060200190929190505050610c0b565b005b34801561037257600080fd5b5061037b610dba565b604051808273ffffffffffffffffffffffffffffffffffffffff1673ffffffffffffffffffffffffffffffffffffffff16815260200191505060405180910390f35b3480156103c957600080fd5b506103d2610de3565b604051808215151515815260200191505060405180910390f35b3480156103f857600080fd5b5061043b6004803603602081101561040f57600080fd5b81019080803573ffffffffffffffffffffffffffffffffffffffff169060200190929190505050610e3a565b604051808260ff1660ff16815260200191505060405180910390f35b34801561046357600080fd5b506104c66004803603604081101561047a57600080fd5b81019080803573ffffffffffffffffffffffffffffffffffffffff169060200190929190803573ffffffffffffffffffffffffffffffffffffffff169060200190929190505050610e5a565b604051808215151515815260200191505060405180910390f35b3480156104ec57600080fd5b506105296004803603604081101561050357600080fd5b81019080803560ff169060200190929190803560ff169060200190929190505050610f71565b604051808215151515815260200191505060405180910390f35b34801561054f57600080fd5b506105926004803603602081101561056657600080fd5b81019080803573ffffffffffffffffffffffffffffffffffffffff169060200190929190505050610fa0565b005b61059d336107b2565b1515610637576040517f08c379a00000000000000000000000000000000000000000000000000000000081526004018080602001828103825260288152602001807f43616c6c696e67206163636f756e74206973206e6f7420616e2061646d696e6981526020017f73747261746f722e00000000000000000000000000000000000000000000000081525060400191505060405180910390fd5b6000600260008473ffffffffffffffffffffffffffffffffffffffff1673ffffffffffffffffffffffffffffffffffffffff16815260200190815260200160002060009054906101000a900460ff169050600060ff168160ff161415156106f7573373ffffffffffffffffffffffffffffffffffffffff168160ff168473ffffffffffffffffffffffffffffffffffffffff167fb50a30a0fa972f89fbb2b514d12b31f5a5d64f53603402de7939742cd8507f6e60405160405180910390a45b81600260008573ffffffffffffffffffffffffffffffffffffffff1673ffffffffffffffffffffffffffffffffffffffff16815260200190815260200160002060006101000a81548160ff021916908360ff1602179055503373ffffffffffffffffffffffffffffffffffffffff168260ff168473ffffffffffffffffffffffffffffffffffffffff167fca6d1e885708b837a7647aeb7f4163ee4ca96058e08ac767be8d23c972c5027060405160405180910390a4505050565b6000600160008373ffffffffffffffffffffffffffffffffffffffff1673ffffffffffffffffffffffffffffffffffffffff16815260200190815260200160002060009054906101000a900460ff169050919050565b610810610de3565b151561081b57600080fd5b6000600160008373ffffffffffffffffffffffffffffffffffffffff1673ffffffffffffffffffffffffffffffffffffffff16815260200190815260200160002060006101000a81548160ff0219169083151502179055503373ffffffffffffffffffffffffffffffffffffffff168173ffffffffffffffffffffffffffffffffffffffff167fdb9d5d31320daf5bc7181d565b6da4d12e30f0f4d5aa324a992426c14a1d19ce60405160405180910390a350565b6108d9336107b2565b1515610973576040517f08c379a00000000000000000000000000000000000000000000000000000000081526004018080602001828103825260288152602001807f43616c6c696e67206163636f756e74206973206e6f7420616e2061646d696e6981526020017f73747261746f722e00000000000000000000000000000000000000000000000081525060400191505060405180910390fd5b6000600360008560ff1660ff16815260200190815260200160002060008460ff1660ff16815260200190815260200160002060009054906101000a900460ff16905081600360008660ff1660ff16815260200190815260200160002060008560ff1660ff16815260200190815260200160002060006101000a81548160ff0219169083151502179055508260ff168460ff167f4710f48c3ffd7c35c93c4aa8a2ee2ed19dbfe5fd475ce369ed524140d58a3c7a83856040518083151515158152602001821515151581526020019250505060405180910390a350505050565b610a5a610de3565b1515610a6557600080fd5b60018060008373ffffffffffffffffffffffffffffffffffffffff1673ffffffffffffffffffffffffffffffffffffffff16815260200190815260200160002060006101000a81548160ff0219169083151502179055503373ffffffffffffffffffffffffffffffffffffffff168173ffffffffffffffffffffffffffffffffffffffff167fbf3f493c772c8c283fd124432c2d0f539ab343faa04258fe88e52912d36b102b60405160405180910390a350565b610b21610de3565b1515610b2c57600080fd5b600073ffffffffffffffffffffffffffffffffffffffff166000809054906101000a900473ffffffffffffffffffffffffffffffffffffffff1673ffffffffffffffffffffffffffffffffffffffff167f8be0079c531659141344cd1fd0a4f28419497f9722a3daafe3b4186f6b6457e060405160405180910390a360008060006101000a81548173ffffffffffffffffffffffffffffffffffffffff021916908373ffffffffffffffffffffffffffffffffffffffff160217905550565b60016020528060005260406000206000915054906101000a900460ff1681565b610c14336107b2565b1515610cae576040517f08c379a00000000000000000000000000000000000000000000000000000000081526004018080602001828103825260288152602001807f43616c6c696e67206163636f756e74206973206e6f7420616e2061646d696e6981526020017f73747261746f722e00000000000000000000000000000000000000000000000081525060400191505060405180910390fd5b6000600260008373ffffffffffffffffffffffffffffffffffffffff1673ffffffffffffffffffffffffffffffffffffffff16815260200190815260200160002060009054906101000a900460ff1690506000600260008473ffffffffffffffffffffffffffffffffffffffff1673ffffffffffffffffffffffffffffffffffffffff16815260200190815260200160002060006101000a81548160ff021916908360ff1602179055503373ffffffffffffffffffffffffffffffffffffffff168160ff168373ffffffffffffffffffffffffffffffffffffffff167fb50a30a0fa972f89fbb2b514d12b31f5a5d64f53603402de7939742cd8507f6e60405160405180910390a45050565b60008060009054906101000a900473ffffffffffffffffffffffffffffffffffffffff16905090565b60008060009054906101000a900473ffffffffffffffffffffffffffffffffffffffff1673ffffffffffffffffffffffffffffffffffffffff163373ffffffffffffffffffffffffffffffffffffffff1614905090565b60026020528060005260406000206000915054906101000a900460ff1681565b600080600260008573ffffffffffffffffffffffffffffffffffffffff1673ffffffffffffffffffffffffffffffffffffffff16815260200190815260200160002060009054906101000a900460ff1690506000600260008573ffffffffffffffffffffffffffffffffffffffff1673ffffffffffffffffffffffffffffffffffffffff16815260200190815260200160002060009054906101000a900460ff169050600060ff168260ff161480610f185750600060ff168160ff16145b15610f2857600092505050610f6b565b600360008360ff1660ff16815260200190815260200160002060008260ff1660ff16815260200190815260200160002060009054906101000a900460ff16925050505b92915050565b60036020528160005260406000206020528060005260406000206000915091509054906101000a900460ff1681565b610fa8610de3565b1515610fb357600080fd5b610fbc81610fbf565b50565b600073ffffffffffffffffffffffffffffffffffffffff168173ffffffffffffffffffffffffffffffffffffffff1614151515610ffb57600080fd5b8073ffffffffffffffffffffffffffffffffffffffff166000809054906101000a900473ffffffffffffffffffffffffffffffffffffffff1673ffffffffffffffffffffffffffffffffffffffff167f8be0079c531659141344cd1fd0a4f28419497f9722a3daafe3b4186f6b6457e060405160405180910390a3806000806101000a81548173ffffffffffffffffffffffffffffffffffffffff021916908373ffffffffffffffffffffffffffffffffffffffff1602179055505056fea165627a7a72305820e6d086b5368b815c423c1ca4397c7bc969ea90add91488b458407454456444150029",
  "source": "pragma solidity >=0.4.25 <0.6.0;\n\nimport \"openzeppelin-solidity/contracts/token/ERC20/ERC20.sol\";\nimport \"openzeppelin-solidity/contracts/token/ERC20/ERC20Detailed.sol\";\nimport \"./Administratable.sol\";\n\n/**\nKeeps track of whitelists and can check if sender and reciever are configured to allow a transfer.\nOnly administrators can update the whitelists.\nAny address can only be a member of one whitelist at a time.\n */\ncontract Whitelistable is Administratable {\n    // Zero is reserved for indicating it is not on a whitelist\n    uint8 constant NO_WHITELIST = 0;\n\n    // The mapping to keep track of which whitelist any address belongs to.\n    // 0 is reserved for no whitelist and is the default for all addresses.\n    mapping (address => uint8) public addressWhitelists;\n\n    // The mapping to keep track of each whitelist's outbound whitelist flags.\n    // Boolean flag indicates whether outbound transfers are enabled.\n    mapping(uint8 => mapping (uint8 => bool)) public outboundWhitelistsEnabled;\n\n    // Events to allow tracking add/remove.\n    event AddressAddedToWhitelist(address indexed addedAddress, uint8 indexed whitelist, address indexed addedBy);\n    event AddressRemovedFromWhitelist(address indexed removedAddress, uint8 indexed whitelist, address indexed removedBy);\n    event OutboundWhitelistUpdated(uint8 indexed sourceWhitelist, uint8 indexed destinationWhitelist, bool from, bool to);\n\n    /**\n    Sets an address's white list ID.  Only administrators should be allowed to update this.\n    If an address is on an existing whitelist, it will just get updated to the new value (removed from previous).\n     */\n    function addToWhitelist(address addressToAdd, uint8 whitelist) public onlyAdministrator {\n        // Save off the previous white list\n        uint8 previousWhitelist = addressWhitelists[addressToAdd];\n\n        // If the previous whitelist existed then we want to indicate it has been removed\n        if(previousWhitelist != NO_WHITELIST) {\n            // Emit the event for tracking\n            emit AddressRemovedFromWhitelist(addressToAdd, previousWhitelist, msg.sender);\n        }\n\n        // Set the address's white list ID\n        addressWhitelists[addressToAdd] = whitelist;\n\n        // Emit the event for tracking\n        emit AddressAddedToWhitelist(addressToAdd, whitelist, msg.sender);\n    }\n\n    /**\n    Clears out an address's white list ID.  Only administrators should be allowed to update this.\n     */\n    function removeFromWhitelist(address addressToRemove) public onlyAdministrator {\n        // Save off the previous white list\n        uint8 previousWhitelist = addressWhitelists[addressToRemove];\n\n        // Zero out the previous white list\n        addressWhitelists[addressToRemove] = NO_WHITELIST;\n\n        // Emit the event for tracking\n        emit AddressRemovedFromWhitelist(addressToRemove, previousWhitelist, msg.sender);\n    }\n\n    /**\n    Sets the flag to indicate whether source whitelist is allowed to send to destination whitelist.\n     */\n    function updateOutboundWhitelistEnabled(uint8 sourceWhitelist, uint8 destinationWhitelist, bool newEnabledValue) public onlyAdministrator {\n        // Get the old enabled flag\n        bool oldEnabledValue = outboundWhitelistsEnabled[sourceWhitelist][destinationWhitelist];\n\n        // Update to the new value\n        outboundWhitelistsEnabled[sourceWhitelist][destinationWhitelist] = newEnabledValue;\n\n        // Emit event for tracking\n        emit OutboundWhitelistUpdated(sourceWhitelist, destinationWhitelist, oldEnabledValue, newEnabledValue);\n    }\n\n    /**\n    Determine if the a sender is allowed to send to the receiver.\n    The source whitelist must be enabled to send to the whitelist where the receive exists.\n     */\n    function checkWhitelistAllowed(address sender, address receiver) public view returns (bool) {\n        // First get each address white list\n        uint8 senderWhiteList = addressWhitelists[sender];\n        uint8 receiverWhiteList = addressWhitelists[receiver];\n\n        // If either address is not on a white list then the check should fail\n        if(senderWhiteList == NO_WHITELIST || receiverWhiteList == NO_WHITELIST){\n            return false;\n        }\n\n        // Determine if the sending whitelist is allowed to send to the destination whitelist        \n        return outboundWhitelistsEnabled[senderWhiteList][receiverWhiteList];\n    }\n}",
  "sourcePath": "/Users/james/Source/tokensoft/suku_token/contracts/WhiteListable.sol",
  "compiler": {
    "name": "solc",
    "version": "0.5.0+commit.1d4f565a.Emscripten.clang"
  },
  "schemaVersion": "3.0.2",
  "updatedAt": "2019-03-20T23:55:07.458Z",
  "devdoc": {
    "methods": {
      "isOwner()": {
        "return": "true if `msg.sender` is the owner of the contract."
      },
      "owner()": {
        "return": "the address of the owner."
      },
      "renounceOwnership()": {
        "details": "Allows the current owner to relinquish control of the contract."
      },
      "transferOwnership(address)": {
        "details": "Allows the current owner to transfer control of the contract to a newOwner.",
        "params": {
          "newOwner": "The address to transfer ownership to."
        }
      }
    }
  },
  "userdoc": {
    "methods": {
      "addAdmin(address)": {
        "notice": "Add an admin to the list.  This should only be callable by the owner of the contract."
      },
      "addToWhitelist(address,uint8)": {
        "notice": "Sets an address's white list ID.  Only administrators should be allowed to update this. If an address is on an existing whitelist, it will just get updated to the new value (removed from previous)."
      },
      "checkWhitelistAllowed(address,address)": {
        "notice": "Determine if the a sender is allowed to send to the receiver. The source whitelist must be enabled to send to the whitelist where the receive exists."
      },
      "isAdministrator(address)": {
        "notice": "Determine if the message sender is in the administrators list."
      },
      "removeAdmin(address)": {
        "notice": "Remove an admin from the list.  This should only be callable by the owner of the contract."
      },
      "removeFromWhitelist(address)": {
        "notice": "Clears out an address's white list ID.  Only administrators should be allowed to update this."
      },
      "renounceOwnership()": {
        "notice": "Renouncing to ownership will leave the contract without an owner. It will not be possible to call the functions with the `onlyOwner` modifier anymore."
      },
      "updateOutboundWhitelistEnabled(uint8,uint8,bool)": {
        "notice": "Sets the flag to indicate whether source whitelist is allowed to send to destination whitelist."
      }
    },
    "notice": "Keeps track of whitelists and can check if sender and reciever are configured to allow a transfer. Only administrators can update the whitelists. Any address can only be a member of one whitelist at a time."
  }
}