{
  "contractName": "Whitelistable",
  "abi": [
    {
      "constant": true,
      "inputs": [
        {
          "name": "addressToTest",
          "type": "address"
        }
      ],
      "name": "isAdministrator",
      "outputs": [
        {
          "name": "",
          "type": "bool"
        }
      ],
      "payable": false,
      "stateMutability": "view",
      "type": "function"
    },
    {
      "constant": false,
      "inputs": [
        {
          "name": "adminToRemove",
          "type": "address"
        }
      ],
      "name": "removeAdmin",
      "outputs": [],
      "payable": false,
      "stateMutability": "nonpayable",
      "type": "function"
    },
    {
      "constant": false,
      "inputs": [
        {
          "name": "adminToAdd",
          "type": "address"
        }
      ],
      "name": "addAdmin",
      "outputs": [],
      "payable": false,
      "stateMutability": "nonpayable",
      "type": "function"
    },
    {
      "constant": false,
      "inputs": [],
      "name": "renounceOwnership",
      "outputs": [],
      "payable": false,
      "stateMutability": "nonpayable",
      "type": "function"
    },
    {
      "constant": true,
      "inputs": [
        {
          "name": "",
          "type": "address"
        }
      ],
      "name": "administrators",
      "outputs": [
        {
          "name": "",
          "type": "bool"
        }
      ],
      "payable": false,
      "stateMutability": "view",
      "type": "function"
    },
    {
      "constant": true,
      "inputs": [],
      "name": "owner",
      "outputs": [
        {
          "name": "",
          "type": "address"
        }
      ],
      "payable": false,
      "stateMutability": "view",
      "type": "function"
    },
    {
      "constant": true,
      "inputs": [],
      "name": "isOwner",
      "outputs": [
        {
          "name": "",
          "type": "bool"
        }
      ],
      "payable": false,
      "stateMutability": "view",
      "type": "function"
    },
    {
      "constant": true,
      "inputs": [
        {
          "name": "",
          "type": "address"
        }
      ],
      "name": "addressWhitelists",
      "outputs": [
        {
          "name": "",
          "type": "uint8"
        }
      ],
      "payable": false,
      "stateMutability": "view",
      "type": "function"
    },
    {
      "constant": false,
      "inputs": [
        {
          "name": "newOwner",
          "type": "address"
        }
      ],
      "name": "transferOwnership",
      "outputs": [],
      "payable": false,
      "stateMutability": "nonpayable",
      "type": "function"
    },
    {
      "anonymous": false,
      "inputs": [
        {
          "indexed": true,
          "name": "addedAddress",
          "type": "address"
        },
        {
          "indexed": true,
          "name": "whitelist",
          "type": "uint8"
        }
      ],
      "name": "AddressAddedToWhitelist",
      "type": "event"
    },
    {
      "anonymous": false,
      "inputs": [
        {
          "indexed": true,
          "name": "removedAddress",
          "type": "address"
        },
        {
          "indexed": true,
          "name": "whitelist",
          "type": "uint8"
        }
      ],
      "name": "AddressRemovedFromWhitelist",
      "type": "event"
    },
    {
      "anonymous": false,
      "inputs": [
        {
          "indexed": true,
          "name": "addedAdmin",
          "type": "address"
        }
      ],
      "name": "AdminAdded",
      "type": "event"
    },
    {
      "anonymous": false,
      "inputs": [
        {
          "indexed": true,
          "name": "removedAdmin",
          "type": "address"
        }
      ],
      "name": "AdminRemoved",
      "type": "event"
    },
    {
      "anonymous": false,
      "inputs": [
        {
          "indexed": true,
          "name": "previousOwner",
          "type": "address"
        },
        {
          "indexed": true,
          "name": "newOwner",
          "type": "address"
        }
      ],
      "name": "OwnershipTransferred",
      "type": "event"
    },
    {
      "constant": false,
      "inputs": [
        {
          "name": "addressToAdd",
          "type": "address"
        },
        {
          "name": "whitelist",
          "type": "uint8"
        }
      ],
      "name": "addToWhitelist",
      "outputs": [],
      "payable": false,
      "stateMutability": "nonpayable",
      "type": "function"
    },
    {
      "constant": false,
      "inputs": [
        {
          "name": "addressToRemove",
          "type": "address"
        }
      ],
      "name": "removeFromWhitelist",
      "outputs": [],
      "payable": false,
      "stateMutability": "nonpayable",
      "type": "function"
    },
    {
      "constant": true,
      "inputs": [
        {
          "name": "sender",
          "type": "address"
        },
        {
          "name": "receiver",
          "type": "address"
        }
      ],
      "name": "checkSameWhitelist",
      "outputs": [
        {
          "name": "",
          "type": "bool"
        }
      ],
      "payable": false,
      "stateMutability": "view",
      "type": "function"
    }
  ],
  "bytecode": "0x6080604052336000806101000a81548173ffffffffffffffffffffffffffffffffffffffff021916908373ffffffffffffffffffffffffffffffffffffffff1602179055506000809054906101000a900473ffffffffffffffffffffffffffffffffffffffff1673ffffffffffffffffffffffffffffffffffffffff16600073ffffffffffffffffffffffffffffffffffffffff167f8be0079c531659141344cd1fd0a4f28419497f9722a3daafe3b4186f6b6457e060405160405180910390a3610dbc806100cf6000396000f3fe6080604052600436106100ba576000357c0100000000000000000000000000000000000000000000000000000000900463ffffffff1680630263b858146100bf5780630a2eb3011461011d5780630f8a55bc146101865780631785f53c1461020f5780637048027514610260578063715018a6146102b157806376be1585146102c85780638ab1d681146103315780638da5cb5b146103825780638f32d59b146103d957806392e6d68b14610408578063f2fde38b14610473575b600080fd5b3480156100cb57600080fd5b5061011b600480360360408110156100e257600080fd5b81019080803573ffffffffffffffffffffffffffffffffffffffff169060200190929190803560ff1690602001909291905050506104c4565b005b34801561012957600080fd5b5061016c6004803603602081101561014057600080fd5b81019080803573ffffffffffffffffffffffffffffffffffffffff1690602001909291905050506106b4565b604051808215151515815260200191505060405180910390f35b34801561019257600080fd5b506101f5600480360360408110156101a957600080fd5b81019080803573ffffffffffffffffffffffffffffffffffffffff169060200190929190803573ffffffffffffffffffffffffffffffffffffffff16906020019092919050505061070a565b604051808215151515815260200191505060405180910390f35b34801561021b57600080fd5b5061025e6004803603602081101561023257600080fd5b81019080803573ffffffffffffffffffffffffffffffffffffffff1690602001909291905050506107ec565b005b34801561026c57600080fd5b506102af6004803603602081101561028357600080fd5b81019080803573ffffffffffffffffffffffffffffffffffffffff16906020019092919050505061089d565b005b3480156102bd57600080fd5b506102c661094d565b005b3480156102d457600080fd5b50610317600480360360208110156102eb57600080fd5b81019080803573ffffffffffffffffffffffffffffffffffffffff169060200190929190505050610a1f565b604051808215151515815260200191505060405180910390f35b34801561033d57600080fd5b506103806004803603602081101561035457600080fd5b81019080803573ffffffffffffffffffffffffffffffffffffffff169060200190929190505050610a3f565b005b34801561038e57600080fd5b50610397610bd7565b604051808273ffffffffffffffffffffffffffffffffffffffff1673ffffffffffffffffffffffffffffffffffffffff16815260200191505060405180910390f35b3480156103e557600080fd5b506103ee610c00565b604051808215151515815260200191505060405180910390f35b34801561041457600080fd5b506104576004803603602081101561042b57600080fd5b81019080803573ffffffffffffffffffffffffffffffffffffffff169060200190929190505050610c57565b604051808260ff1660ff16815260200191505060405180910390f35b34801561047f57600080fd5b506104c26004803603602081101561049657600080fd5b81019080803573ffffffffffffffffffffffffffffffffffffffff169060200190929190505050610c77565b005b6104cd336106b4565b1515610567576040517f08c379a00000000000000000000000000000000000000000000000000000000081526004018080602001828103825260288152602001807f43616c6c696e67206163636f756e74206973206e6f7420616e2061646d696e6981526020017f73747261746f722e00000000000000000000000000000000000000000000000081525060400191505060405180910390fd5b6000600260008473ffffffffffffffffffffffffffffffffffffffff1673ffffffffffffffffffffffffffffffffffffffff16815260200190815260200160002060009054906101000a900460ff169050600060ff168160ff16141515610610578060ff168373ffffffffffffffffffffffffffffffffffffffff167f4155ac20209612cd30bd2fa99c43a2a1df53f031845ff089e2a76e71a796fdda60405160405180910390a35b81600260008573ffffffffffffffffffffffffffffffffffffffff1673ffffffffffffffffffffffffffffffffffffffff16815260200190815260200160002060006101000a81548160ff021916908360ff1602179055508160ff168373ffffffffffffffffffffffffffffffffffffffff167f12b91e6ccdc1048bb730e34fb2fb081b8bb69e7755a6195f504dcb132f4bac7060405160405180910390a3505050565b6000600160008373ffffffffffffffffffffffffffffffffffffffff1673ffffffffffffffffffffffffffffffffffffffff16815260200190815260200160002060009054906101000a900460ff169050919050565b600080600260008573ffffffffffffffffffffffffffffffffffffffff1673ffffffffffffffffffffffffffffffffffffffff16815260200190815260200160002060009054906101000a900460ff1690506000600260008573ffffffffffffffffffffffffffffffffffffffff1673ffffffffffffffffffffffffffffffffffffffff16815260200190815260200160002060009054906101000a900460ff169050600060ff168260ff1614806107c85750600060ff168160ff16145b156107d8576000925050506107e6565b8060ff168260ff1614925050505b92915050565b6107f4610c00565b15156107ff57600080fd5b6000600160008373ffffffffffffffffffffffffffffffffffffffff1673ffffffffffffffffffffffffffffffffffffffff16815260200190815260200160002060006101000a81548160ff0219169083151502179055508073ffffffffffffffffffffffffffffffffffffffff167fa3b62bc36326052d97ea62d63c3d60308ed4c3ea8ac079dd8499f1e9c4f80c0f60405160405180910390a250565b6108a5610c00565b15156108b057600080fd5b60018060008373ffffffffffffffffffffffffffffffffffffffff1673ffffffffffffffffffffffffffffffffffffffff16815260200190815260200160002060006101000a81548160ff0219169083151502179055508073ffffffffffffffffffffffffffffffffffffffff167f44d6d25963f097ad14f29f06854a01f575648a1ef82f30e562ccd3889717e33960405160405180910390a250565b610955610c00565b151561096057600080fd5b600073ffffffffffffffffffffffffffffffffffffffff166000809054906101000a900473ffffffffffffffffffffffffffffffffffffffff1673ffffffffffffffffffffffffffffffffffffffff167f8be0079c531659141344cd1fd0a4f28419497f9722a3daafe3b4186f6b6457e060405160405180910390a360008060006101000a81548173ffffffffffffffffffffffffffffffffffffffff021916908373ffffffffffffffffffffffffffffffffffffffff160217905550565b60016020528060005260406000206000915054906101000a900460ff1681565b610a48336106b4565b1515610ae2576040517f08c379a00000000000000000000000000000000000000000000000000000000081526004018080602001828103825260288152602001807f43616c6c696e67206163636f756e74206973206e6f7420616e2061646d696e6981526020017f73747261746f722e00000000000000000000000000000000000000000000000081525060400191505060405180910390fd5b6000600260008373ffffffffffffffffffffffffffffffffffffffff1673ffffffffffffffffffffffffffffffffffffffff16815260200190815260200160002060009054906101000a900460ff1690506000600260008473ffffffffffffffffffffffffffffffffffffffff1673ffffffffffffffffffffffffffffffffffffffff16815260200190815260200160002060006101000a81548160ff021916908360ff1602179055508060ff168273ffffffffffffffffffffffffffffffffffffffff167f4155ac20209612cd30bd2fa99c43a2a1df53f031845ff089e2a76e71a796fdda60405160405180910390a35050565b60008060009054906101000a900473ffffffffffffffffffffffffffffffffffffffff16905090565b60008060009054906101000a900473ffffffffffffffffffffffffffffffffffffffff1673ffffffffffffffffffffffffffffffffffffffff163373ffffffffffffffffffffffffffffffffffffffff1614905090565b60026020528060005260406000206000915054906101000a900460ff1681565b610c7f610c00565b1515610c8a57600080fd5b610c9381610c96565b50565b600073ffffffffffffffffffffffffffffffffffffffff168173ffffffffffffffffffffffffffffffffffffffff1614151515610cd257600080fd5b8073ffffffffffffffffffffffffffffffffffffffff166000809054906101000a900473ffffffffffffffffffffffffffffffffffffffff1673ffffffffffffffffffffffffffffffffffffffff167f8be0079c531659141344cd1fd0a4f28419497f9722a3daafe3b4186f6b6457e060405160405180910390a3806000806101000a81548173ffffffffffffffffffffffffffffffffffffffff021916908373ffffffffffffffffffffffffffffffffffffffff1602179055505056fea165627a7a723058205903e8e117082fbd2f9cc9718e8bc9a1828af97aa69cbd06534dd23cca8664cf0029",
  "source": "pragma solidity >=0.4.25 <0.6.0;\n\nimport \"openzeppelin-solidity/contracts/token/ERC20/ERC20.sol\";\nimport \"openzeppelin-solidity/contracts/token/ERC20/ERC20Detailed.sol\";\nimport \"./Administratable.sol\";\n\n/**\nKeeps track of whitelists and can check if sender and reciever are both in the same whitelist.\nOnly administrators can update the whitelists.\nAny address can only be a member of one whitelist at a time.\n */\ncontract Whitelistable is Administratable {\n    // Zero is reserved for indicating it is not on a whitelist\n    uint8 constant NO_WHITELIST = 0;\n\n    // The mapping to keep track of which whitelist any address belongs to.\n    // 0 is reserved for no whitelsit.\n    mapping (address => uint8) public addressWhitelists;\n\n    // Events to allow tracking add/remove.\n    event AddressAddedToWhitelist(address indexed addedAddress, uint8 indexed whitelist);\n    event AddressRemovedFromWhitelist(address indexed removedAddress, uint8 indexed whitelist);\n\n    /**\n    Sets an address's white list ID.  Only administrators should be allowed to update this.\n    If an address is on an existing whitelist, it will just get updated.\n     */\n    function addToWhitelist(address addressToAdd, uint8 whitelist) public onlyAdministrator {\n        // Save off the previous white list\n        uint8 previousWhitelist = addressWhitelists[addressToAdd];\n\n        // If the previous whitelist existed then we want to indicate it has been removed\n        if(previousWhitelist != NO_WHITELIST) {\n            // Emit the event for tracking\n            emit AddressRemovedFromWhitelist(addressToAdd, previousWhitelist);\n        }\n\n        // Set the address's white list ID\n        addressWhitelists[addressToAdd] = whitelist;\n\n        // Emit the event for tracking\n        emit AddressAddedToWhitelist(addressToAdd, whitelist);\n    }\n\n    /**\n    Clears out an address's white list ID.  Only administrators should be allowed to update this.\n     */\n    function removeFromWhitelist(address addressToRemove) public onlyAdministrator {\n        // Save off the previous white list\n        uint8 previousWhitelist = addressWhitelists[addressToRemove];\n\n        // Zero out the previous white list\n        addressWhitelists[addressToRemove] = NO_WHITELIST;\n\n        // Emit the event for tracking\n        emit AddressRemovedFromWhitelist(addressToRemove, previousWhitelist);\n    }\n\n    /**\n    Determine if the a sender and receiver are both on the same whitelist.\n     */\n    function checkSameWhitelist(address sender, address receiver) public view returns (bool) {\n        // First get each address white list\n        uint8 senderWhiteList = addressWhitelists[sender];\n        uint8 receiverWhiteList = addressWhitelists[receiver];\n\n        // If either address is not on a white list then the check should fail\n        if(senderWhiteList == NO_WHITELIST || receiverWhiteList == NO_WHITELIST){\n            return false;\n        }\n\n        // Determine if the whitelists match\n        return senderWhiteList == receiverWhiteList;\n    }\n}",
  "sourcePath": "/Users/james/Source/tokensoft/suku_token/contracts/WhiteListable.sol",
  "compiler": {
    "name": "solc",
    "version": "0.5.0+commit.1d4f565a.Emscripten.clang"
  },
  "schemaVersion": "3.0.2",
  "updatedAt": "2019-03-05T20:31:41.057Z",
  "devdoc": {
    "methods": {
      "isOwner()": {
        "return": "true if `msg.sender` is the owner of the contract."
      },
      "owner()": {
        "return": "the address of the owner."
      },
      "renounceOwnership()": {
        "details": "Allows the current owner to relinquish control of the contract."
      },
      "transferOwnership(address)": {
        "details": "Allows the current owner to transfer control of the contract to a newOwner.",
        "params": {
          "newOwner": "The address to transfer ownership to."
        }
      }
    }
  },
  "userdoc": {
    "methods": {
      "addAdmin(address)": {
        "notice": "Add an admin to the list.  This should only be callable by the owner of the contract."
      },
      "addToWhitelist(address,uint8)": {
        "notice": "Sets an address's white list ID.  Only administrators should be allowed to update this. If an address is on an existing whitelist, it will just get updated."
      },
      "checkSameWhitelist(address,address)": {
        "notice": "Determine if the a sender and receiver are both on the same whitelist."
      },
      "isAdministrator(address)": {
        "notice": "Determine if the message sender is in the administrators list."
      },
      "removeAdmin(address)": {
        "notice": "Remove an admin from the list.  This should only be callable by the owner of the contract."
      },
      "removeFromWhitelist(address)": {
        "notice": "Clears out an address's white list ID.  Only administrators should be allowed to update this."
      },
      "renounceOwnership()": {
        "notice": "Renouncing to ownership will leave the contract without an owner. It will not be possible to call the functions with the `onlyOwner` modifier anymore."
      }
    },
    "notice": "Keeps track of whitelists and can check if sender and reciever are both in the same whitelist. Only administrators can update the whitelists. Any address can only be a member of one whitelist at a time."
  }
}